{
  "_format": "hh-sol-artifact-1",
  "contractName": "CBSaiListeningPass",
  "sourceName": "contracts/CBSaiListeningPass.sol",
  "abi": [
    {
      "inputs": [],
      "stateMutability": "nonpayable",
      "type": "constructor"
    },
    {
      "anonymous": false,
      "inputs": [
        {
          "indexed": true,
          "internalType": "address",
          "name": "owner",
          "type": "address"
        },
        {
          "indexed": true,
          "internalType": "address",
          "name": "approved",
          "type": "address"
        },
        {
          "indexed": true,
          "internalType": "uint256",
          "name": "tokenId",
          "type": "uint256"
        }
      ],
      "name": "Approval",
      "type": "event"
    },
    {
      "anonymous": false,
      "inputs": [
        {
          "indexed": true,
          "internalType": "address",
          "name": "owner",
          "type": "address"
        },
        {
          "indexed": true,
          "internalType": "address",
          "name": "operator",
          "type": "address"
        },
        {
          "indexed": false,
          "internalType": "bool",
          "name": "approved",
          "type": "bool"
        }
      ],
      "name": "ApprovalForAll",
      "type": "event"
    },
    {
      "anonymous": false,
      "inputs": [
        {
          "indexed": true,
          "internalType": "address",
          "name": "previousOwner",
          "type": "address"
        },
        {
          "indexed": true,
          "internalType": "address",
          "name": "newOwner",
          "type": "address"
        }
      ],
      "name": "OwnershipTransferred",
      "type": "event"
    },
    {
      "anonymous": false,
      "inputs": [
        {
          "indexed": true,
          "internalType": "address",
          "name": "from",
          "type": "address"
        },
        {
          "indexed": true,
          "internalType": "address",
          "name": "to",
          "type": "address"
        },
        {
          "indexed": true,
          "internalType": "uint256",
          "name": "tokenId",
          "type": "uint256"
        }
      ],
      "name": "Transfer",
      "type": "event"
    },
    {
      "inputs": [],
      "name": "_maxPasses",
      "outputs": [
        {
          "internalType": "uint256",
          "name": "",
          "type": "uint256"
        }
      ],
      "stateMutability": "view",
      "type": "function"
    },
    {
      "inputs": [],
      "name": "_mintPrice",
      "outputs": [
        {
          "internalType": "uint256",
          "name": "",
          "type": "uint256"
        }
      ],
      "stateMutability": "view",
      "type": "function"
    },
    {
      "inputs": [],
      "name": "_saleActive",
      "outputs": [
        {
          "internalType": "bool",
          "name": "",
          "type": "bool"
        }
      ],
      "stateMutability": "view",
      "type": "function"
    },
    {
      "inputs": [],
      "name": "_tokenCount",
      "outputs": [
        {
          "internalType": "uint256",
          "name": "_value",
          "type": "uint256"
        }
      ],
      "stateMutability": "view",
      "type": "function"
    },
    {
      "inputs": [
        {
          "internalType": "address",
          "name": "to",
          "type": "address"
        },
        {
          "internalType": "uint256",
          "name": "tokenId",
          "type": "uint256"
        }
      ],
      "name": "approve",
      "outputs": [],
      "stateMutability": "nonpayable",
      "type": "function"
    },
    {
      "inputs": [
        {
          "internalType": "address",
          "name": "owner",
          "type": "address"
        }
      ],
      "name": "balanceOf",
      "outputs": [
        {
          "internalType": "uint256",
          "name": "",
          "type": "uint256"
        }
      ],
      "stateMutability": "view",
      "type": "function"
    },
    {
      "inputs": [
        {
          "internalType": "uint256",
          "name": "tokenId",
          "type": "uint256"
        }
      ],
      "name": "getApproved",
      "outputs": [
        {
          "internalType": "address",
          "name": "",
          "type": "address"
        }
      ],
      "stateMutability": "view",
      "type": "function"
    },
    {
      "inputs": [],
      "name": "getBaseURI",
      "outputs": [
        {
          "internalType": "string",
          "name": "",
          "type": "string"
        }
      ],
      "stateMutability": "view",
      "type": "function"
    },
    {
      "inputs": [
        {
          "internalType": "address",
          "name": "owner",
          "type": "address"
        },
        {
          "internalType": "address",
          "name": "operator",
          "type": "address"
        }
      ],
      "name": "isApprovedForAll",
      "outputs": [
        {
          "internalType": "bool",
          "name": "",
          "type": "bool"
        }
      ],
      "stateMutability": "view",
      "type": "function"
    },
    {
      "inputs": [],
      "name": "mint",
      "outputs": [],
      "stateMutability": "payable",
      "type": "function"
    },
    {
      "inputs": [],
      "name": "name",
      "outputs": [
        {
          "internalType": "string",
          "name": "",
          "type": "string"
        }
      ],
      "stateMutability": "view",
      "type": "function"
    },
    {
      "inputs": [],
      "name": "owner",
      "outputs": [
        {
          "internalType": "address",
          "name": "",
          "type": "address"
        }
      ],
      "stateMutability": "view",
      "type": "function"
    },
    {
      "inputs": [
        {
          "internalType": "uint256",
          "name": "tokenId",
          "type": "uint256"
        }
      ],
      "name": "ownerOf",
      "outputs": [
        {
          "internalType": "address",
          "name": "",
          "type": "address"
        }
      ],
      "stateMutability": "view",
      "type": "function"
    },
    {
      "inputs": [],
      "name": "renounceOwnership",
      "outputs": [],
      "stateMutability": "nonpayable",
      "type": "function"
    },
    {
      "inputs": [
        {
          "internalType": "address",
          "name": "from",
          "type": "address"
        },
        {
          "internalType": "address",
          "name": "to",
          "type": "address"
        },
        {
          "internalType": "uint256",
          "name": "tokenId",
          "type": "uint256"
        }
      ],
      "name": "safeTransferFrom",
      "outputs": [],
      "stateMutability": "nonpayable",
      "type": "function"
    },
    {
      "inputs": [
        {
          "internalType": "address",
          "name": "from",
          "type": "address"
        },
        {
          "internalType": "address",
          "name": "to",
          "type": "address"
        },
        {
          "internalType": "uint256",
          "name": "tokenId",
          "type": "uint256"
        },
        {
          "internalType": "bytes",
          "name": "_data",
          "type": "bytes"
        }
      ],
      "name": "safeTransferFrom",
      "outputs": [],
      "stateMutability": "nonpayable",
      "type": "function"
    },
    {
      "inputs": [
        {
          "internalType": "address",
          "name": "operator",
          "type": "address"
        },
        {
          "internalType": "bool",
          "name": "approved",
          "type": "bool"
        }
      ],
      "name": "setApprovalForAll",
      "outputs": [],
      "stateMutability": "nonpayable",
      "type": "function"
    },
    {
      "inputs": [
        {
          "internalType": "string",
          "name": "baseURI",
          "type": "string"
        }
      ],
      "name": "setBaseURI",
      "outputs": [],
      "stateMutability": "nonpayable",
      "type": "function"
    },
    {
      "inputs": [
        {
          "internalType": "uint256",
          "name": "newPasses",
          "type": "uint256"
        }
      ],
      "name": "setMaxPasses",
      "outputs": [],
      "stateMutability": "nonpayable",
      "type": "function"
    },
    {
      "inputs": [
        {
          "internalType": "uint256",
          "name": "price",
          "type": "uint256"
        }
      ],
      "name": "setMintPrice",
      "outputs": [],
      "stateMutability": "nonpayable",
      "type": "function"
    },
    {
      "inputs": [
        {
          "internalType": "bool",
          "name": "active",
          "type": "bool"
        }
      ],
      "name": "setSaleActive",
      "outputs": [],
      "stateMutability": "nonpayable",
      "type": "function"
    },
    {
      "inputs": [
        {
          "internalType": "bytes4",
          "name": "interfaceId",
          "type": "bytes4"
        }
      ],
      "name": "supportsInterface",
      "outputs": [
        {
          "internalType": "bool",
          "name": "",
          "type": "bool"
        }
      ],
      "stateMutability": "view",
      "type": "function"
    },
    {
      "inputs": [],
      "name": "symbol",
      "outputs": [
        {
          "internalType": "string",
          "name": "",
          "type": "string"
        }
      ],
      "stateMutability": "view",
      "type": "function"
    },
    {
      "inputs": [
        {
          "internalType": "uint256",
          "name": "tokenId",
          "type": "uint256"
        }
      ],
      "name": "tokenURI",
      "outputs": [
        {
          "internalType": "string",
          "name": "",
          "type": "string"
        }
      ],
      "stateMutability": "view",
      "type": "function"
    },
    {
      "inputs": [
        {
          "internalType": "address",
          "name": "from",
          "type": "address"
        },
        {
          "internalType": "address",
          "name": "to",
          "type": "address"
        },
        {
          "internalType": "uint256",
          "name": "tokenId",
          "type": "uint256"
        }
      ],
      "name": "transferFrom",
      "outputs": [],
      "stateMutability": "nonpayable",
      "type": "function"
    },
    {
      "inputs": [
        {
          "internalType": "address",
          "name": "newOwner",
          "type": "address"
        }
      ],
      "name": "transferOwnership",
      "outputs": [],
      "stateMutability": "nonpayable",
      "type": "function"
    },
    {
      "inputs": [],
      "name": "withdraw",
      "outputs": [],
      "stateMutability": "nonpayable",
      "type": "function"
    }
  ],
  "bytecode": "0x6080604052600a80556000600b553480156200001a57600080fd5b506040518060400160405280601581526020017f434220536169204c697374656e696e67205061737300000000000000000000008152506040518060400160405280600581526020017f5341494c5000000000000000000000000000000000000000000000000000000081525081600090805190602001906200009f92919062000204565b508060019080519060200190620000b892919062000204565b505050620000db620000cf6200013660201b60201c565b6200013e60201b60201c565b60016007819055506000600d60006101000a81548160ff02191690831515021790555060405180608001604052806042815260200162003d1460429139600990805190602001906200012f92919062000204565b5062000319565b600033905090565b6000600660009054906101000a900473ffffffffffffffffffffffffffffffffffffffff16905081600660006101000a81548173ffffffffffffffffffffffffffffffffffffffff021916908373ffffffffffffffffffffffffffffffffffffffff1602179055508173ffffffffffffffffffffffffffffffffffffffff168173ffffffffffffffffffffffffffffffffffffffff167f8be0079c531659141344cd1fd0a4f28419497f9722a3daafe3b4186f6b6457e060405160405180910390a35050565b8280546200021290620002b4565b90600052602060002090601f01602090048101928262000236576000855562000282565b82601f106200025157805160ff191683800117855562000282565b8280016001018555821562000282579182015b828111156200028157825182559160200191906001019062000264565b5b50905062000291919062000295565b5090565b5b80821115620002b057600081600090555060010162000296565b5090565b60006002820490506001821680620002cd57607f821691505b60208210811415620002e457620002e3620002ea565b5b50919050565b7f4e487b7100000000000000000000000000000000000000000000000000000000600052602260045260246000fd5b6139eb80620003296000396000f3fe60806040526004361061019c5760003560e01c806370a08231116100ec578063a22cb4651161008a578063e985e9c511610064578063e985e9c51461057f578063f2fde38b146105bc578063f4a0a528146105e5578063f5d2cf321461060e5761019c565b8063a22cb465146104f0578063b88d4fde14610519578063c87b56dd146105425761019c565b806383ab6b32116100c657806383ab6b3214610448578063841718a6146104715780638da5cb5b1461049a57806395d89b41146104c55761019c565b806370a08231146103c9578063714c539814610406578063715018a6146104315761019c565b80631eef9d2c116101595780633ccfd60b116101335780633ccfd60b1461032357806342842e0e1461033a57806355f804b3146103635780636352211e1461038c5761019c565b80631eef9d2c146102a457806323b872dd146102cf5780632c2c852f146102f85761019c565b806301ffc9a7146101a15780630387da42146101de57806306fdde0314610209578063081812fc14610234578063095ea7b3146102715780631249c58b1461029a575b600080fd5b3480156101ad57600080fd5b506101c860048036038101906101c3919061268d565b610639565b6040516101d59190612c81565b60405180910390f35b3480156101ea57600080fd5b506101f361071b565b6040516102009190612f7e565b60405180910390f35b34801561021557600080fd5b5061021e610721565b60405161022b9190612c9c565b60405180910390f35b34801561024057600080fd5b5061025b60048036038101906102569190612720565b6107b3565b6040516102689190612c1a565b60405180910390f35b34801561027d57600080fd5b5061029860048036038101906102939190612628565b610838565b005b6102a2610950565b005b3480156102b057600080fd5b506102b9610bfc565b6040516102c69190612f7e565b60405180910390f35b3480156102db57600080fd5b506102f660048036038101906102f19190612522565b610c08565b005b34801561030457600080fd5b5061030d610c68565b60405161031a9190612c81565b60405180910390f35b34801561032f57600080fd5b50610338610c7b565b005b34801561034657600080fd5b50610361600480360381019061035c9190612522565b610d4d565b005b34801561036f57600080fd5b5061038a600480360381019061038591906126df565b610d6d565b005b34801561039857600080fd5b506103b360048036038101906103ae9190612720565b610e03565b6040516103c09190612c1a565b60405180910390f35b3480156103d557600080fd5b506103f060048036038101906103eb91906124bd565b610eb5565b6040516103fd9190612f7e565b60405180910390f35b34801561041257600080fd5b5061041b610f6d565b6040516104289190612c9c565b60405180910390f35b34801561043d57600080fd5b50610446610fff565b005b34801561045457600080fd5b5061046f600480360381019061046a9190612720565b611087565b005b34801561047d57600080fd5b5061049860048036038101906104939190612664565b611159565b005b3480156104a657600080fd5b506104af6111f2565b6040516104bc9190612c1a565b60405180910390f35b3480156104d157600080fd5b506104da61121c565b6040516104e79190612c9c565b60405180910390f35b3480156104fc57600080fd5b50610517600480360381019061051291906125ec565b6112ae565b005b34801561052557600080fd5b50610540600480360381019061053b9190612571565b6112c4565b005b34801561054e57600080fd5b5061056960048036038101906105649190612720565b611326565b6040516105769190612c9c565b60405180910390f35b34801561058b57600080fd5b506105a660048036038101906105a191906124e6565b6113a2565b6040516105b39190612c81565b60405180910390f35b3480156105c857600080fd5b506105e360048036038101906105de91906124bd565b611436565b005b3480156105f157600080fd5b5061060c60048036038101906106079190612720565b61152e565b005b34801561061a57600080fd5b506106236115b4565b6040516106309190612f7e565b60405180910390f35b60007f80ac58cd000000000000000000000000000000000000000000000000000000007bffffffffffffffffffffffffffffffffffffffffffffffffffffffff1916827bffffffffffffffffffffffffffffffffffffffffffffffffffffffff1916148061070457507f5b5e139f000000000000000000000000000000000000000000000000000000007bffffffffffffffffffffffffffffffffffffffffffffffffffffffff1916827bffffffffffffffffffffffffffffffffffffffffffffffffffffffff1916145b806107145750610713826115ba565b5b9050919050565b600b5481565b606060008054610730906131e9565b80601f016020809104026020016040519081016040528092919081815260200182805461075c906131e9565b80156107a95780601f1061077e576101008083540402835291602001916107a9565b820191906000526020600020905b81548152906001019060200180831161078c57829003601f168201915b5050505050905090565b60006107be82611624565b6107fd576040517f08c379a00000000000000000000000000000000000000000000000000000000081526004016107f490612e7e565b60405180910390fd5b6004600083815260200190815260200160002060009054906101000a900473ffffffffffffffffffffffffffffffffffffffff169050919050565b600061084382610e03565b90508073ffffffffffffffffffffffffffffffffffffffff168373ffffffffffffffffffffffffffffffffffffffff1614156108b4576040517f08c379a00000000000000000000000000000000000000000000000000000000081526004016108ab90612ede565b60405180910390fd5b8073ffffffffffffffffffffffffffffffffffffffff166108d3611690565b73ffffffffffffffffffffffffffffffffffffffff1614806109025750610901816108fc611690565b6113a2565b5b610941576040517f08c379a000000000000000000000000000000000000000000000000000000000815260040161093890612d9e565b60405180910390fd5b61094b8383611698565b505050565b60026007541415610996576040517f08c379a000000000000000000000000000000000000000000000000000000000815260040161098d90612f3e565b60405180910390fd5b6002600781905550600b54600b543410156109e6576040517f08c379a00000000000000000000000000000000000000000000000000000000081526004016109dd90612f1e565b60405180910390fd5b6109ee611690565b600d60009054906101000a900460ff16610a3d576040517f08c379a0000000000000000000000000000000000000000000000000000000008152600401610a3490612d7e565b60405180910390fd5b600a546001610a4c6008611751565b610a569190613078565b1115610a97576040517f08c379a0000000000000000000000000000000000000000000000000000000008152600401610a8e90612f5e565b60405180910390fd5b610a9f6111f2565b73ffffffffffffffffffffffffffffffffffffffff16610abd611690565b73ffffffffffffffffffffffffffffffffffffffff1614610b6d5760011515600c60008373ffffffffffffffffffffffffffffffffffffffff1673ffffffffffffffffffffffffffffffffffffffff16815260200190815260200160002060009054906101000a900460ff1615151415610b6c576040517f08c379a0000000000000000000000000000000000000000000000000000000008152600401610b6390612dfe565b60405180910390fd5b5b610b77600861175f565b610b91610b82611690565b610b8c6008611751565b611775565b6001600c6000610b9f611690565b73ffffffffffffffffffffffffffffffffffffffff1673ffffffffffffffffffffffffffffffffffffffff16815260200190815260200160002060006101000a81548160ff02191690831515021790555050506001600781905550565b60088060000154905081565b610c19610c13611690565b82611793565b610c58576040517f08c379a0000000000000000000000000000000000000000000000000000000008152600401610c4f90612efe565b60405180910390fd5b610c63838383611871565b505050565b600d60009054906101000a900460ff1681565b610c83611690565b73ffffffffffffffffffffffffffffffffffffffff16610ca16111f2565b73ffffffffffffffffffffffffffffffffffffffff1614610cf7576040517f08c379a0000000000000000000000000000000000000000000000000000000008152600401610cee90612e9e565b60405180910390fd5b6000479050610d04611690565b73ffffffffffffffffffffffffffffffffffffffff166108fc829081150290604051600060405180830381858888f19350505050158015610d49573d6000803e3d6000fd5b5050565b610d68838383604051806020016040528060008152506112c4565b505050565b610d75611690565b73ffffffffffffffffffffffffffffffffffffffff16610d936111f2565b73ffffffffffffffffffffffffffffffffffffffff1614610de9576040517f08c379a0000000000000000000000000000000000000000000000000000000008152600401610de090612e9e565b60405180910390fd5b8060099080519060200190610dff9291906122e1565b5050565b6000806002600084815260200190815260200160002060009054906101000a900473ffffffffffffffffffffffffffffffffffffffff169050600073ffffffffffffffffffffffffffffffffffffffff168173ffffffffffffffffffffffffffffffffffffffff161415610eac576040517f08c379a0000000000000000000000000000000000000000000000000000000008152600401610ea390612e1e565b60405180910390fd5b80915050919050565b60008073ffffffffffffffffffffffffffffffffffffffff168273ffffffffffffffffffffffffffffffffffffffff161415610f26576040517f08c379a0000000000000000000000000000000000000000000000000000000008152600401610f1d90612dde565b60405180910390fd5b600360008373ffffffffffffffffffffffffffffffffffffffff1673ffffffffffffffffffffffffffffffffffffffff168152602001908152602001600020549050919050565b606060098054610f7c906131e9565b80601f0160208091040260200160405190810160405280929190818152602001828054610fa8906131e9565b8015610ff55780601f10610fca57610100808354040283529160200191610ff5565b820191906000526020600020905b815481529060010190602001808311610fd857829003601f168201915b5050505050905090565b611007611690565b73ffffffffffffffffffffffffffffffffffffffff166110256111f2565b73ffffffffffffffffffffffffffffffffffffffff161461107b576040517f08c379a000000000000000000000000000000000000000000000000000000000815260040161107290612e9e565b60405180910390fd5b6110856000611acd565b565b61108f611690565b73ffffffffffffffffffffffffffffffffffffffff166110ad6111f2565b73ffffffffffffffffffffffffffffffffffffffff1614611103576040517f08c379a00000000000000000000000000000000000000000000000000000000081526004016110fa90612e9e565b60405180910390fd5b61110d6008611751565b81101561114f576040517f08c379a000000000000000000000000000000000000000000000000000000000815260040161114690612e3e565b60405180910390fd5b80600a8190555050565b611161611690565b73ffffffffffffffffffffffffffffffffffffffff1661117f6111f2565b73ffffffffffffffffffffffffffffffffffffffff16146111d5576040517f08c379a00000000000000000000000000000000000000000000000000000000081526004016111cc90612e9e565b60405180910390fd5b80600d60006101000a81548160ff02191690831515021790555050565b6000600660009054906101000a900473ffffffffffffffffffffffffffffffffffffffff16905090565b60606001805461122b906131e9565b80601f0160208091040260200160405190810160405280929190818152602001828054611257906131e9565b80156112a45780601f10611279576101008083540402835291602001916112a4565b820191906000526020600020905b81548152906001019060200180831161128757829003601f168201915b5050505050905090565b6112c06112b9611690565b8383611b93565b5050565b6112d56112cf611690565b83611793565b611314576040517f08c379a000000000000000000000000000000000000000000000000000000000815260040161130b90612efe565b60405180910390fd5b61132084848484611d00565b50505050565b606061133182611624565b611370576040517f08c379a000000000000000000000000000000000000000000000000000000000815260040161136790612dbe565b60405180910390fd5b600961137b83611d5c565b60405160200161138c929190612be0565b6040516020818303038152906040529050919050565b6000600560008473ffffffffffffffffffffffffffffffffffffffff1673ffffffffffffffffffffffffffffffffffffffff16815260200190815260200160002060008373ffffffffffffffffffffffffffffffffffffffff1673ffffffffffffffffffffffffffffffffffffffff16815260200190815260200160002060009054906101000a900460ff16905092915050565b61143e611690565b73ffffffffffffffffffffffffffffffffffffffff1661145c6111f2565b73ffffffffffffffffffffffffffffffffffffffff16146114b2576040517f08c379a00000000000000000000000000000000000000000000000000000000081526004016114a990612e9e565b60405180910390fd5b600073ffffffffffffffffffffffffffffffffffffffff168173ffffffffffffffffffffffffffffffffffffffff161415611522576040517f08c379a000000000000000000000000000000000000000000000000000000000815260040161151990612cde565b60405180910390fd5b61152b81611acd565b50565b611536611690565b73ffffffffffffffffffffffffffffffffffffffff166115546111f2565b73ffffffffffffffffffffffffffffffffffffffff16146115aa576040517f08c379a00000000000000000000000000000000000000000000000000000000081526004016115a190612e9e565b60405180910390fd5b80600b8190555050565b600a5481565b60007f01ffc9a7000000000000000000000000000000000000000000000000000000007bffffffffffffffffffffffffffffffffffffffffffffffffffffffff1916827bffffffffffffffffffffffffffffffffffffffffffffffffffffffff1916149050919050565b60008073ffffffffffffffffffffffffffffffffffffffff166002600084815260200190815260200160002060009054906101000a900473ffffffffffffffffffffffffffffffffffffffff1673ffffffffffffffffffffffffffffffffffffffff1614159050919050565b600033905090565b816004600083815260200190815260200160002060006101000a81548173ffffffffffffffffffffffffffffffffffffffff021916908373ffffffffffffffffffffffffffffffffffffffff160217905550808273ffffffffffffffffffffffffffffffffffffffff1661170b83610e03565b73ffffffffffffffffffffffffffffffffffffffff167f8c5be1e5ebec7d5bd14f71427d1e84f3dd0314c0f7b2291e5b200ac8c7c3b92560405160405180910390a45050565b600081600001549050919050565b6001816000016000828254019250508190555050565b61178f828260405180602001604052806000815250611f09565b5050565b600061179e82611624565b6117dd576040517f08c379a00000000000000000000000000000000000000000000000000000000081526004016117d490612d5e565b60405180910390fd5b60006117e883610e03565b90508073ffffffffffffffffffffffffffffffffffffffff168473ffffffffffffffffffffffffffffffffffffffff16148061185757508373ffffffffffffffffffffffffffffffffffffffff1661183f846107b3565b73ffffffffffffffffffffffffffffffffffffffff16145b80611868575061186781856113a2565b5b91505092915050565b8273ffffffffffffffffffffffffffffffffffffffff1661189182610e03565b73ffffffffffffffffffffffffffffffffffffffff16146118e7576040517f08c379a00000000000000000000000000000000000000000000000000000000081526004016118de90612ebe565b60405180910390fd5b600073ffffffffffffffffffffffffffffffffffffffff168273ffffffffffffffffffffffffffffffffffffffff161415611957576040517f08c379a000000000000000000000000000000000000000000000000000000000815260040161194e90612d1e565b60405180910390fd5b611962838383611f64565b61196d600082611698565b6001600360008573ffffffffffffffffffffffffffffffffffffffff1673ffffffffffffffffffffffffffffffffffffffff16815260200190815260200160002060008282546119bd91906130ff565b925050819055506001600360008473ffffffffffffffffffffffffffffffffffffffff1673ffffffffffffffffffffffffffffffffffffffff1681526020019081526020016000206000828254611a149190613078565b92505081905550816002600083815260200190815260200160002060006101000a81548173ffffffffffffffffffffffffffffffffffffffff021916908373ffffffffffffffffffffffffffffffffffffffff160217905550808273ffffffffffffffffffffffffffffffffffffffff168473ffffffffffffffffffffffffffffffffffffffff167fddf252ad1be2c89b69c2b068fc378daa952ba7f163c4a11628f55a4df523b3ef60405160405180910390a4505050565b6000600660009054906101000a900473ffffffffffffffffffffffffffffffffffffffff16905081600660006101000a81548173ffffffffffffffffffffffffffffffffffffffff021916908373ffffffffffffffffffffffffffffffffffffffff1602179055508173ffffffffffffffffffffffffffffffffffffffff168173ffffffffffffffffffffffffffffffffffffffff167f8be0079c531659141344cd1fd0a4f28419497f9722a3daafe3b4186f6b6457e060405160405180910390a35050565b8173ffffffffffffffffffffffffffffffffffffffff168373ffffffffffffffffffffffffffffffffffffffff161415611c02576040517f08c379a0000000000000000000000000000000000000000000000000000000008152600401611bf990612d3e565b60405180910390fd5b80600560008573ffffffffffffffffffffffffffffffffffffffff1673ffffffffffffffffffffffffffffffffffffffff16815260200190815260200160002060008473ffffffffffffffffffffffffffffffffffffffff1673ffffffffffffffffffffffffffffffffffffffff16815260200190815260200160002060006101000a81548160ff0219169083151502179055508173ffffffffffffffffffffffffffffffffffffffff168373ffffffffffffffffffffffffffffffffffffffff167f17307eab39ab6107e8899845ad3d59bd9653f200f220920489ca2b5937696c3183604051611cf39190612c81565b60405180910390a3505050565b611d0b848484611871565b611d1784848484611f69565b611d56576040517f08c379a0000000000000000000000000000000000000000000000000000000008152600401611d4d90612cbe565b60405180910390fd5b50505050565b60606000821415611da4576040518060400160405280600181526020017f30000000000000000000000000000000000000000000000000000000000000008152509050611f04565b600082905060005b60008214611dd6578080611dbf9061324c565b915050600a82611dcf91906130ce565b9150611dac565b60008167ffffffffffffffff811115611e18577f4e487b7100000000000000000000000000000000000000000000000000000000600052604160045260246000fd5b6040519080825280601f01601f191660200182016040528015611e4a5781602001600182028036833780820191505090505b5090505b60008514611efd57600182611e6391906130ff565b9150600a85611e729190613295565b6030611e7e9190613078565b60f81b818381518110611eba577f4e487b7100000000000000000000000000000000000000000000000000000000600052603260045260246000fd5b60200101907effffffffffffffffffffffffffffffffffffffffffffffffffffffffffffff1916908160001a905350600a85611ef691906130ce565b9450611e4e565b8093505050505b919050565b611f138383612100565b611f206000848484611f69565b611f5f576040517f08c379a0000000000000000000000000000000000000000000000000000000008152600401611f5690612cbe565b60405180910390fd5b505050565b505050565b6000611f8a8473ffffffffffffffffffffffffffffffffffffffff166122ce565b156120f3578373ffffffffffffffffffffffffffffffffffffffff1663150b7a02611fb3611690565b8786866040518563ffffffff1660e01b8152600401611fd59493929190612c35565b602060405180830381600087803b158015611fef57600080fd5b505af192505050801561202057506040513d601f19601f8201168201806040525081019061201d91906126b6565b60015b6120a3573d8060008114612050576040519150601f19603f3d011682016040523d82523d6000602084013e612055565b606091505b5060008151141561209b576040517f08c379a000000000000000000000000000000000000000000000000000000000815260040161209290612cbe565b60405180910390fd5b805181602001fd5b63150b7a0260e01b7bffffffffffffffffffffffffffffffffffffffffffffffffffffffff1916817bffffffffffffffffffffffffffffffffffffffffffffffffffffffff1916149150506120f8565b600190505b949350505050565b600073ffffffffffffffffffffffffffffffffffffffff168273ffffffffffffffffffffffffffffffffffffffff161415612170576040517f08c379a000000000000000000000000000000000000000000000000000000000815260040161216790612e5e565b60405180910390fd5b61217981611624565b156121b9576040517f08c379a00000000000000000000000000000000000000000000000000000000081526004016121b090612cfe565b60405180910390fd5b6121c560008383611f64565b6001600360008473ffffffffffffffffffffffffffffffffffffffff1673ffffffffffffffffffffffffffffffffffffffff16815260200190815260200160002060008282546122159190613078565b92505081905550816002600083815260200190815260200160002060006101000a81548173ffffffffffffffffffffffffffffffffffffffff021916908373ffffffffffffffffffffffffffffffffffffffff160217905550808273ffffffffffffffffffffffffffffffffffffffff16600073ffffffffffffffffffffffffffffffffffffffff167fddf252ad1be2c89b69c2b068fc378daa952ba7f163c4a11628f55a4df523b3ef60405160405180910390a45050565b600080823b905060008111915050919050565b8280546122ed906131e9565b90600052602060002090601f01602090048101928261230f5760008555612356565b82601f1061232857805160ff1916838001178555612356565b82800160010185558215612356579182015b8281111561235557825182559160200191906001019061233a565b5b5090506123639190612367565b5090565b5b80821115612380576000816000905550600101612368565b5090565b600061239761239284612fbe565b612f99565b9050828152602081018484840111156123af57600080fd5b6123ba8482856131a7565b509392505050565b60006123d56123d084612fef565b612f99565b9050828152602081018484840111156123ed57600080fd5b6123f88482856131a7565b509392505050565b60008135905061240f81613959565b92915050565b60008135905061242481613970565b92915050565b60008135905061243981613987565b92915050565b60008151905061244e81613987565b92915050565b600082601f83011261246557600080fd5b8135612475848260208601612384565b91505092915050565b600082601f83011261248f57600080fd5b813561249f8482602086016123c2565b91505092915050565b6000813590506124b78161399e565b92915050565b6000602082840312156124cf57600080fd5b60006124dd84828501612400565b91505092915050565b600080604083850312156124f957600080fd5b600061250785828601612400565b925050602061251885828601612400565b9150509250929050565b60008060006060848603121561253757600080fd5b600061254586828701612400565b935050602061255686828701612400565b9250506040612567868287016124a8565b9150509250925092565b6000806000806080858703121561258757600080fd5b600061259587828801612400565b94505060206125a687828801612400565b93505060406125b7878288016124a8565b925050606085013567ffffffffffffffff8111156125d457600080fd5b6125e087828801612454565b91505092959194509250565b600080604083850312156125ff57600080fd5b600061260d85828601612400565b925050602061261e85828601612415565b9150509250929050565b6000806040838503121561263b57600080fd5b600061264985828601612400565b925050602061265a858286016124a8565b9150509250929050565b60006020828403121561267657600080fd5b600061268484828501612415565b91505092915050565b60006020828403121561269f57600080fd5b60006126ad8482850161242a565b91505092915050565b6000602082840312156126c857600080fd5b60006126d68482850161243f565b91505092915050565b6000602082840312156126f157600080fd5b600082013567ffffffffffffffff81111561270b57600080fd5b6127178482850161247e565b91505092915050565b60006020828403121561273257600080fd5b6000612740848285016124a8565b91505092915050565b61275281613133565b82525050565b61276181613145565b82525050565b600061277282613035565b61277c818561304b565b935061278c8185602086016131b6565b61279581613382565b840191505092915050565b60006127ab82613040565b6127b5818561305c565b93506127c58185602086016131b6565b6127ce81613382565b840191505092915050565b60006127e482613040565b6127ee818561306d565b93506127fe8185602086016131b6565b80840191505092915050565b60008154612817816131e9565b612821818661306d565b9450600182166000811461283c576001811461284d57612880565b60ff19831686528186019350612880565b61285685613020565b60005b8381101561287857815481890152600182019150602081019050612859565b838801955050505b50505092915050565b600061289660328361305c565b91506128a182613393565b604082019050919050565b60006128b960268361305c565b91506128c4826133e2565b604082019050919050565b60006128dc601c8361305c565b91506128e782613431565b602082019050919050565b60006128ff60248361305c565b915061290a8261345a565b604082019050919050565b600061292260198361305c565b915061292d826134a9565b602082019050919050565b6000612945602c8361305c565b9150612950826134d2565b604082019050919050565b6000612968600f8361305c565b915061297382613521565b602082019050919050565b600061298b60388361305c565b91506129968261354a565b604082019050919050565b60006129ae60118361305c565b91506129b982613599565b602082019050919050565b60006129d1602a8361305c565b91506129dc826135c2565b604082019050919050565b60006129f460178361305c565b91506129ff82613611565b602082019050919050565b6000612a1760298361305c565b9150612a228261363a565b604082019050919050565b6000612a3a60278361305c565b9150612a4582613689565b604082019050919050565b6000612a5d60208361305c565b9150612a68826136d8565b602082019050919050565b6000612a80602c8361305c565b9150612a8b82613701565b604082019050919050565b6000612aa360058361306d565b9150612aae82613750565b600582019050919050565b6000612ac660208361305c565b9150612ad182613779565b602082019050919050565b6000612ae960298361305c565b9150612af4826137a2565b604082019050919050565b6000612b0c60218361305c565b9150612b17826137f1565b604082019050919050565b6000612b2f60318361305c565b9150612b3a82613840565b604082019050919050565b6000612b5260188361305c565b9150612b5d8261388f565b602082019050919050565b6000612b75601f8361305c565b9150612b80826138b8565b602082019050919050565b6000612b9860238361305c565b9150612ba3826138e1565b604082019050919050565b6000612bbb60018361306d565b9150612bc682613930565b600182019050919050565b612bda8161319d565b82525050565b6000612bec828561280a565b9150612bf782612bae565b9150612c0382846127d9565b9150612c0e82612a96565b91508190509392505050565b6000602082019050612c2f6000830184612749565b92915050565b6000608082019050612c4a6000830187612749565b612c576020830186612749565b612c646040830185612bd1565b8181036060830152612c768184612767565b905095945050505050565b6000602082019050612c966000830184612758565b92915050565b60006020820190508181036000830152612cb681846127a0565b905092915050565b60006020820190508181036000830152612cd781612889565b9050919050565b60006020820190508181036000830152612cf7816128ac565b9050919050565b60006020820190508181036000830152612d17816128cf565b9050919050565b60006020820190508181036000830152612d37816128f2565b9050919050565b60006020820190508181036000830152612d5781612915565b9050919050565b60006020820190508181036000830152612d7781612938565b9050919050565b60006020820190508181036000830152612d978161295b565b9050919050565b60006020820190508181036000830152612db78161297e565b9050919050565b60006020820190508181036000830152612dd7816129a1565b9050919050565b60006020820190508181036000830152612df7816129c4565b9050919050565b60006020820190508181036000830152612e17816129e7565b9050919050565b60006020820190508181036000830152612e3781612a0a565b9050919050565b60006020820190508181036000830152612e5781612a2d565b9050919050565b60006020820190508181036000830152612e7781612a50565b9050919050565b60006020820190508181036000830152612e9781612a73565b9050919050565b60006020820190508181036000830152612eb781612ab9565b9050919050565b60006020820190508181036000830152612ed781612adc565b9050919050565b60006020820190508181036000830152612ef781612aff565b9050919050565b60006020820190508181036000830152612f1781612b22565b9050919050565b60006020820190508181036000830152612f3781612b45565b9050919050565b60006020820190508181036000830152612f5781612b68565b9050919050565b60006020820190508181036000830152612f7781612b8b565b9050919050565b6000602082019050612f936000830184612bd1565b92915050565b6000612fa3612fb4565b9050612faf828261321b565b919050565b6000604051905090565b600067ffffffffffffffff821115612fd957612fd8613353565b5b612fe282613382565b9050602081019050919050565b600067ffffffffffffffff82111561300a57613009613353565b5b61301382613382565b9050602081019050919050565b60008190508160005260206000209050919050565b600081519050919050565b600081519050919050565b600082825260208201905092915050565b600082825260208201905092915050565b600081905092915050565b60006130838261319d565b915061308e8361319d565b9250827fffffffffffffffffffffffffffffffffffffffffffffffffffffffffffffffff038211156130c3576130c26132c6565b5b828201905092915050565b60006130d98261319d565b91506130e48361319d565b9250826130f4576130f36132f5565b5b828204905092915050565b600061310a8261319d565b91506131158361319d565b925082821015613128576131276132c6565b5b828203905092915050565b600061313e8261317d565b9050919050565b60008115159050919050565b60007fffffffff0000000000000000000000000000000000000000000000000000000082169050919050565b600073ffffffffffffffffffffffffffffffffffffffff82169050919050565b6000819050919050565b82818337600083830152505050565b60005b838110156131d45780820151818401526020810190506131b9565b838111156131e3576000848401525b50505050565b6000600282049050600182168061320157607f821691505b6020821081141561321557613214613324565b5b50919050565b61322482613382565b810181811067ffffffffffffffff8211171561324357613242613353565b5b80604052505050565b60006132578261319d565b91507fffffffffffffffffffffffffffffffffffffffffffffffffffffffffffffffff82141561328a576132896132c6565b5b600182019050919050565b60006132a08261319d565b91506132ab8361319d565b9250826132bb576132ba6132f5565b5b828206905092915050565b7f4e487b7100000000000000000000000000000000000000000000000000000000600052601160045260246000fd5b7f4e487b7100000000000000000000000000000000000000000000000000000000600052601260045260246000fd5b7f4e487b7100000000000000000000000000000000000000000000000000000000600052602260045260246000fd5b7f4e487b7100000000000000000000000000000000000000000000000000000000600052604160045260246000fd5b6000601f19601f8301169050919050565b7f4552433732313a207472616e7366657220746f206e6f6e20455243373231526560008201527f63656976657220696d706c656d656e7465720000000000000000000000000000602082015250565b7f4f776e61626c653a206e6577206f776e657220697320746865207a65726f206160008201527f6464726573730000000000000000000000000000000000000000000000000000602082015250565b7f4552433732313a20746f6b656e20616c7265616479206d696e74656400000000600082015250565b7f4552433732313a207472616e7366657220746f20746865207a65726f2061646460008201527f7265737300000000000000000000000000000000000000000000000000000000602082015250565b7f4552433732313a20617070726f766520746f2063616c6c657200000000000000600082015250565b7f4552433732313a206f70657261746f7220717565727920666f72206e6f6e657860008201527f697374656e7420746f6b656e0000000000000000000000000000000000000000602082015250565b7f53616c65206e6f74206163746976650000000000000000000000000000000000600082015250565b7f4552433732313a20617070726f76652063616c6c6572206973206e6f74206f7760008201527f6e6572206e6f7220617070726f76656420666f7220616c6c0000000000000000602082015250565b7f4e6f6e6578697374656e7420746f6b656e000000000000000000000000000000600082015250565b7f4552433732313a2062616c616e636520717565727920666f7220746865207a6560008201527f726f206164647265737300000000000000000000000000000000000000000000602082015250565b7f4f6e6c792031206d696e74207065722061646472657373000000000000000000600082015250565b7f4552433732313a206f776e657220717565727920666f72206e6f6e657869737460008201527f656e7420746f6b656e0000000000000000000000000000000000000000000000602082015250565b7f4275726e696e6720697320746865206f6e6c792077617920746f20646573747260008201527f6f79204e46547300000000000000000000000000000000000000000000000000602082015250565b7f4552433732313a206d696e7420746f20746865207a65726f2061646472657373600082015250565b7f4552433732313a20617070726f76656420717565727920666f72206e6f6e657860008201527f697374656e7420746f6b656e0000000000000000000000000000000000000000602082015250565b7f2e6a736f6e000000000000000000000000000000000000000000000000000000600082015250565b7f4f776e61626c653a2063616c6c6572206973206e6f7420746865206f776e6572600082015250565b7f4552433732313a207472616e73666572206f6620746f6b656e2074686174206960008201527f73206e6f74206f776e0000000000000000000000000000000000000000000000602082015250565b7f4552433732313a20617070726f76616c20746f2063757272656e74206f776e6560008201527f7200000000000000000000000000000000000000000000000000000000000000602082015250565b7f4552433732313a207472616e736665722063616c6c6572206973206e6f74206f60008201527f776e6572206e6f7220617070726f766564000000000000000000000000000000602082015250565b7f496e636f7272656374204554482076616c75652073656e740000000000000000600082015250565b7f5265656e7472616e637947756172643a207265656e7472616e742063616c6c00600082015250565b7f4e6f7420656e6f756768207061737365732072656d61696e696e6720746f206d60008201527f696e740000000000000000000000000000000000000000000000000000000000602082015250565b7f2f00000000000000000000000000000000000000000000000000000000000000600082015250565b61396281613133565b811461396d57600080fd5b50565b61397981613145565b811461398457600080fd5b50565b61399081613151565b811461399b57600080fd5b50565b6139a78161319d565b81146139b257600080fd5b5056fea2646970667358221220873af66542e62a6748da703ffddc849608ba98becaf90cfaceaa50dc3235d46a64736f6c63430008040033697066733a2f2f62616679626569656f3265336d616b6d6a757063786b70667462696a3436756d656e6963356a68683373356d376e346f6c6f797462326c6c6a3379",
  "linkReferences": {},
  "deployedLinkReferences": {}
}